{
  "contractName": "Marketplace",
  "abi": [
    {
      "anonymous": false,
      "inputs": [
        {
          "indexed": false,
          "internalType": "uint256",
          "name": "id",
          "type": "uint256"
        },
        {
          "indexed": false,
          "internalType": "string",
          "name": "name",
          "type": "string"
        },
        {
          "indexed": false,
          "internalType": "uint256",
          "name": "price",
          "type": "uint256"
        },
        {
          "indexed": false,
          "internalType": "address",
          "name": "owner",
          "type": "address"
        },
        {
          "indexed": false,
          "internalType": "bool",
          "name": "purchased",
          "type": "bool"
        }
      ],
      "name": "ProductCreated",
      "type": "event"
    },
    {
      "anonymous": false,
      "inputs": [
        {
          "indexed": false,
          "internalType": "uint256",
          "name": "id",
          "type": "uint256"
        },
        {
          "indexed": false,
          "internalType": "string",
          "name": "name",
          "type": "string"
        },
        {
          "indexed": false,
          "internalType": "uint256",
          "name": "price",
          "type": "uint256"
        },
        {
          "indexed": false,
          "internalType": "address",
          "name": "owner",
          "type": "address"
        },
        {
          "indexed": false,
          "internalType": "bool",
          "name": "purchased",
          "type": "bool"
        }
      ],
      "name": "ProductPurchased",
      "type": "event"
    },
    {
      "inputs": [],
      "name": "productCount",
      "outputs": [
        {
          "internalType": "uint256",
          "name": "",
          "type": "uint256"
        }
      ],
      "stateMutability": "view",
      "type": "function"
    },
    {
      "inputs": [
        {
          "internalType": "uint256",
          "name": "",
          "type": "uint256"
        }
      ],
      "name": "products",
      "outputs": [
        {
          "internalType": "uint256",
          "name": "id",
          "type": "uint256"
        },
        {
          "internalType": "string",
          "name": "name",
          "type": "string"
        },
        {
          "internalType": "uint256",
          "name": "price",
          "type": "uint256"
        },
        {
          "internalType": "address payable",
          "name": "owner",
          "type": "address"
        },
        {
          "internalType": "bool",
          "name": "purchased",
          "type": "bool"
        }
      ],
      "stateMutability": "view",
      "type": "function"
    },
    {
      "inputs": [
        {
          "internalType": "string",
          "name": "_name",
          "type": "string"
        },
        {
          "internalType": "uint256",
          "name": "_price",
          "type": "uint256"
        }
      ],
      "name": "createProduct",
      "outputs": [],
      "stateMutability": "nonpayable",
      "type": "function"
    },
    {
      "inputs": [
        {
          "internalType": "uint256",
          "name": "_id",
          "type": "uint256"
        }
      ],
      "name": "purchaseProduct",
      "outputs": [],
      "stateMutability": "payable",
      "type": "function"
    }
  ],
  "bytecode": "0x60806040525f8055348015610012575f80fd5b50611153806100205f395ff3fe60806040526004361061003e575f3560e01c806338e76a03146100425780637acc0b201461005e578063e0f6ef871461009e578063e9300c6c146100c8575b5f80fd5b61005c600480360381019061005791906107e4565b6100f0565b005b348015610069575f80fd5b50610084600480360381019061007f91906107e4565b6104f5565b604051610095959493929190610901565b60405180910390f35b3480156100a9575f80fd5b506100b26105d9565b6040516100bf9190610959565b60405180910390f35b3480156100d3575f80fd5b506100ee60048036038101906100e99190610a9e565b6105de565b005b5f60015f8381526020019081526020015f206040518060a00160405290815f820154815260200160018201805461012690610b25565b80601f016020809104026020016040519081016040528092919081815260200182805461015290610b25565b801561019d5780601f106101745761010080835404028352916020019161019d565b820191905f5260205f20905b81548152906001019060200180831161018057829003601f168201915b5050505050815260200160028201548152602001600382015f9054906101000a900473ffffffffffffffffffffffffffffffffffffffff1673ffffffffffffffffffffffffffffffffffffffff1673ffffffffffffffffffffffffffffffffffffffff1681526020016003820160149054906101000a900460ff16151515158152505090505f815f015111801561023857505f54815f015111155b610277576040517f08c379a000000000000000000000000000000000000000000000000000000000815260040161026e90610b9f565b60405180910390fd5b80604001513410156102be576040517f08c379a00000000000000000000000000000000000000000000000000000000081526004016102b590610c07565b60405180910390fd5b806080015115610303576040517f08c379a00000000000000000000000000000000000000000000000000000000081526004016102fa90610c6f565b60405180910390fd5b3373ffffffffffffffffffffffffffffffffffffffff16816060015173ffffffffffffffffffffffffffffffffffffffff1603610375576040517f08c379a000000000000000000000000000000000000000000000000000000000815260040161036c90610cd7565b60405180910390fd5b806060015173ffffffffffffffffffffffffffffffffffffffff166108fc3490811502906040515f60405180830381858888f193505050501580156103bc573d5f803e3d5ffd5b5033816060019073ffffffffffffffffffffffffffffffffffffffff16908173ffffffffffffffffffffffffffffffffffffffff168152505060018160800190151590811515815250508060015f8481526020019081526020015f205f820151815f015560208201518160010190816104359190610e92565b50604082015181600201556060820151816003015f6101000a81548173ffffffffffffffffffffffffffffffffffffffff021916908373ffffffffffffffffffffffffffffffffffffffff16021790555060808201518160030160146101000a81548160ff0219169083151502179055509050507f79558d0d7d4d900e2f15c4cc0a665f1acdbe415e44de900ecdd1e5bf12b56f4e82826020015183604001513360016040516104e9959493929190610f81565b60405180910390a15050565b6001602052805f5260405f205f91509050805f01549080600101805461051a90610b25565b80601f016020809104026020016040519081016040528092919081815260200182805461054690610b25565b80156105915780601f1061056857610100808354040283529160200191610591565b820191905f5260205f20905b81548152906001019060200180831161057457829003601f168201915b505050505090806002015490806003015f9054906101000a900473ffffffffffffffffffffffffffffffffffffffff16908060030160149054906101000a900460ff16905085565b5f5481565b5f825111610621576040517f08c379a000000000000000000000000000000000000000000000000000000000815260040161061890611023565b60405180910390fd5b5f8111610663576040517f08c379a000000000000000000000000000000000000000000000000000000000815260040161065a9061108b565b60405180910390fd5b5f80815480929190610674906110d6565b91905055506040518060a001604052805f5481526020018381526020018281526020013373ffffffffffffffffffffffffffffffffffffffff1681526020015f151581525060015f805481526020019081526020015f205f820151815f015560208201518160010190816106e89190610e92565b50604082015181600201556060820151816003015f6101000a81548173ffffffffffffffffffffffffffffffffffffffff021916908373ffffffffffffffffffffffffffffffffffffffff16021790555060808201518160030160146101000a81548160ff0219169083151502179055509050507fbc59c0c8165864dcceb377dd07d8f431d4303f8e501cb0a0374a10cc68d718365f548383335f604051610794959493929190610f81565b60405180910390a15050565b5f604051905090565b5f80fd5b5f80fd5b5f819050919050565b6107c3816107b1565b81146107cd575f80fd5b50565b5f813590506107de816107ba565b92915050565b5f602082840312156107f9576107f86107a9565b5b5f610806848285016107d0565b91505092915050565b610818816107b1565b82525050565b5f81519050919050565b5f82825260208201905092915050565b5f5b8381101561085557808201518184015260208101905061083a565b5f8484015250505050565b5f601f19601f8301169050919050565b5f61087a8261081e565b6108848185610828565b9350610894818560208601610838565b61089d81610860565b840191505092915050565b5f73ffffffffffffffffffffffffffffffffffffffff82169050919050565b5f6108d1826108a8565b9050919050565b6108e1816108c7565b82525050565b5f8115159050919050565b6108fb816108e7565b82525050565b5f60a0820190506109145f83018861080f565b81810360208301526109268187610870565b9050610935604083018661080f565b61094260608301856108d8565b61094f60808301846108f2565b9695505050505050565b5f60208201905061096c5f83018461080f565b92915050565b5f80fd5b5f80fd5b7f4e487b71000000000000000000000000000000000000000000000000000000005f52604160045260245ffd5b6109b082610860565b810181811067ffffffffffffffff821117156109cf576109ce61097a565b5b80604052505050565b5f6109e16107a0565b90506109ed82826109a7565b919050565b5f67ffffffffffffffff821115610a0c57610a0b61097a565b5b610a1582610860565b9050602081019050919050565b828183375f83830152505050565b5f610a42610a3d846109f2565b6109d8565b905082815260208101848484011115610a5e57610a5d610976565b5b610a69848285610a22565b509392505050565b5f82601f830112610a8557610a84610972565b5b8135610a95848260208601610a30565b91505092915050565b5f8060408385031215610ab457610ab36107a9565b5b5f83013567ffffffffffffffff811115610ad157610ad06107ad565b5b610add85828601610a71565b9250506020610aee858286016107d0565b9150509250929050565b7f4e487b71000000000000000000000000000000000000000000000000000000005f52602260045260245ffd5b5f6002820490506001821680610b3c57607f821691505b602082108103610b4f57610b4e610af8565b5b50919050565b7f50726f6475637420646f6573206e6f74206578697374000000000000000000005f82015250565b5f610b89601683610828565b9150610b9482610b55565b602082019050919050565b5f6020820190508181035f830152610bb681610b7d565b9050919050565b7f4e6f7420656e6f756768204574686572000000000000000000000000000000005f82015250565b5f610bf1601083610828565b9150610bfc82610bbd565b602082019050919050565b5f6020820190508181035f830152610c1e81610be5565b9050919050565b7f416c7265616479207075726368617365640000000000000000000000000000005f82015250565b5f610c59601183610828565b9150610c6482610c25565b602082019050919050565b5f6020820190508181035f830152610c8681610c4d565b9050919050565b7f42757965722063616e6e6f742062652073656c6c6572000000000000000000005f82015250565b5f610cc1601683610828565b9150610ccc82610c8d565b602082019050919050565b5f6020820190508181035f830152610cee81610cb5565b9050919050565b5f819050815f5260205f209050919050565b5f6020601f8301049050919050565b5f82821b905092915050565b5f60088302610d517fffffffffffffffffffffffffffffffffffffffffffffffffffffffffffffffff82610d16565b610d5b8683610d16565b95508019841693508086168417925050509392505050565b5f819050919050565b5f610d96610d91610d8c846107b1565b610d73565b6107b1565b9050919050565b5f819050919050565b610daf83610d7c565b610dc3610dbb82610d9d565b848454610d22565b825550505050565b5f90565b610dd7610dcb565b610de2818484610da6565b505050565b5b81811015610e0557610dfa5f82610dcf565b600181019050610de8565b5050565b601f821115610e4a57610e1b81610cf5565b610e2484610d07565b81016020851015610e33578190505b610e47610e3f85610d07565b830182610de7565b50505b505050565b5f82821c905092915050565b5f610e6a5f1984600802610e4f565b1980831691505092915050565b5f610e828383610e5b565b9150826002028217905092915050565b610e9b8261081e565b67ffffffffffffffff811115610eb457610eb361097a565b5b610ebe8254610b25565b610ec9828285610e09565b5f60209050601f831160018114610efa575f8415610ee8578287015190505b610ef28582610e77565b865550610f59565b601f198416610f0886610cf5565b5f5b82811015610f2f57848901518255600182019150602085019450602081019050610f0a565b86831015610f4c5784890151610f48601f891682610e5b565b8355505b6001600288020188555050505b505050505050565b5f610f6b826108a8565b9050919050565b610f7b81610f61565b82525050565b5f60a082019050610f945f83018861080f565b8181036020830152610fa68187610870565b9050610fb5604083018661080f565b610fc26060830185610f72565b610fcf60808301846108f2565b9695505050505050565b7f4e616d65207265717569726564000000000000000000000000000000000000005f82015250565b5f61100d600d83610828565b915061101882610fd9565b602082019050919050565b5f6020820190508181035f83015261103a81611001565b9050919050565b7f5072696365206d75737420626520706f736974697665000000000000000000005f82015250565b5f611075601683610828565b915061108082611041565b602082019050919050565b5f6020820190508181035f8301526110a281611069565b9050919050565b7f4e487b71000000000000000000000000000000000000000000000000000000005f52601160045260245ffd5b5f6110e0826107b1565b91507fffffffffffffffffffffffffffffffffffffffffffffffffffffffffffffffff8203611112576111116110a9565b5b60018201905091905056fea2646970667358221220212b9859cdbc0dfa6df86694a09219f4f29e19903d7189d9e213dcedf9ecbdca64736f6c63430008150033",
  "immutableReferences": {},
  "source": "// SPDX-License-Identifier: MIT\r\npragma solidity ^0.8.0;\r\n\r\ncontract Marketplace {\r\n    uint public productCount = 0;\r\n\r\n    struct Product {\r\n        uint id;\r\n        string name;\r\n        uint price;\r\n        address payable owner;\r\n        bool purchased;\r\n    }\r\n\r\n    mapping(uint => Product) public products;\r\n\r\n    event ProductCreated(\r\n        uint id,\r\n        string name,\r\n        uint price,\r\n        address owner,\r\n        bool purchased\r\n    );\r\n\r\n    event ProductPurchased(\r\n        uint id,\r\n        string name,\r\n        uint price,\r\n        address owner,\r\n        bool purchased\r\n    );\r\n\r\n    function createProduct(string memory _name, uint _price) public {\r\n        require(bytes(_name).length > 0, \"Name required\");\r\n        require(_price > 0, \"Price must be positive\");\r\n\r\n        productCount++;\r\n        products[productCount] = Product(productCount, _name, _price, payable(msg.sender), false);\r\n        emit ProductCreated(productCount, _name, _price, msg.sender, false);\r\n    }\r\n\r\n    function purchaseProduct(uint _id) public payable {\r\n        Product memory _product = products[_id];\r\n        require(_product.id > 0 && _product.id <= productCount, \"Product does not exist\");\r\n        require(msg.value >= _product.price, \"Not enough Ether\");\r\n        require(!_product.purchased, \"Already purchased\");\r\n        require(_product.owner != msg.sender, \"Buyer cannot be seller\");\r\n\r\n        _product.owner.transfer(msg.value);\r\n        _product.owner = payable(msg.sender);\r\n        _product.purchased = true;\r\n        products[_id] = _product;\r\n\r\n        emit ProductPurchased(_id, _product.name, _product.price, msg.sender, true);\r\n    }\r\n}\r\n",
  "sourcePath": "C:\\Users\\zclov\\supply-chain-marketplace\\contracts\\Marketplace.sol",
  "compiler": {
    "name": "solc",
    "version": "0.8.21+commit.d9974bed.Emscripten.clang"
  },
  "schemaVersion": "3.4.16",
  "updatedAt": "2025-06-10T15:33:06.584Z",
  "devdoc": {
    "kind": "dev",
    "methods": {},
    "version": 1
  },
  "userdoc": {
    "kind": "user",
    "methods": {},
    "version": 1
  }
}